020191213639240                                                                                                                                                                                                                                                                                       000001
11000000000769770013507266095000139ANDREASSA LTDA                          0273250805100000000000IVETE GOLLNER                 PRIMO BITTI, SN                                   IRAJA                         ARACRUZ                       ES29190970                                               000002
11000000000941565013504509666000120MUZIO LTDA                              0115071539200000000000ADAO ESTACHAKI                DOUTOR BACELAR, 1195                              VILA CLEMENTINO               SAO PAULO                     SP04026002                                               000003
11000000000941565013704509666000120MUZIO LTDA                              0115071539200000000000ADAO ESTACHAKI                DOUTOR BACELAR, 1195                              VILA CLEMENTINO               SAO PAULO                     SP04026002                                               000004
11000000000941565013804509666000120MUZIO LTDA                              0115071539200000000000ADAO ESTACHAKI                DOUTOR BACELAR, 1195                              VILA CLEMENTINO               SAO PAULO                     SP04026002                                               000005
11000000001679120013522758854000174CRESTAN LTDA                            0813527459000000000000MOISES CEPEDA                 PE 60, SN                                         ENGENHO MASSANGANA            CABO DE SANTO AGOSTINHO       PE54590000                                               000006
11000000001994344013501653585000101ANCIDA LTDA                             0513045269500000000000ELISABETH CASALBONI           BENTO GONCALVES, 476                              CENTRO                        VIAMAO                        RS94410400                                               000007
11000000001994344013801653585000101ANCIDA LTDA                             0513045269500000000000ELISABETH CASALBONI           BENTO GONCALVES, 476                              CENTRO                        VIAMAO                        RS94410400                                               000008
11000000002094460013504181557000127MIGNELLA LTDA                           0119984411800000000000CALVIN HAIGERT                JEAN ANASTAC KORVELIS, 180                        POLVILHO                      CAJAMAR                       SP07770000                                               000009
11000000002094460013804181557000127MIGNELLA LTDA                           0119984411800000000000CALVIN HAIGERT                JEAN ANASTAC KORVELIS, 180                        POLVILHO                      CAJAMAR                       SP07770000                                               000010
11000000002342227013535602986000154MONSE LTDA                              0513373483400000000000ZELMA ALFELD                  CEL SOBRAL, 1439                                  N S APARECIDA                 ENCANTADO                     RS95960000                                               000011
11000000002342227013735602986000154MONSE LTDA                              0513373483400000000000ZELMA ALFELD                  CEL SOBRAL, 1439                                  N S APARECIDA                 ENCANTADO                     RS95960000                                               000012
11000000002389096013527201430000128SODRE LTDA                              0323332620700000000000EVANDRO TOMASONI              VISCONDE DE CARANDAI, 174                         CENTRO                        BARBACENA                     MG36200046                                               000013
11000000002389096013727201430000128SODRE LTDA                              0323332620700000000000EVANDRO TOMASONI              VISCONDE DE CARANDAI, 174                         CENTRO                        BARBACENA                     MG36200046                                               000014
11000000002389096013827201430000128SODRE LTDA                              0323332620700000000000EVANDRO TOMASONI              VISCONDE DE CARANDAI, 174                         CENTRO                        BARBACENA                     MG36200046                                               000015
11000000002451840013506980064000263RICARDT LTDA                            0643571115000000000000CAIQUE INTROINI               HUMBERTO MENDONCA, 72                             CENTRO                        PALMEIRAS DE GOIAS            GO76190000                                               000016
11000001000142890013502660164000170AOZANI LTDA                             0849973306000000000000NIVALDO WILGOSH               DA GUIA, 89                                       DO RECIFE                     RECIFE                        PE50030210                                               000017
11000001000142890013802660164000170AOZANI LTDA                             0849973306000000000000NIVALDO WILGOSH               DA GUIA, 89                                       DO RECIFE                     RECIFE                        PE50030210                                               000018
11000001000167086013507448288000100RATTA LTDA                              0633430112700000000000EVANDRO AVALLONE              ARAGUAIA, 429                                     CENTRO                        CARMOLANDIA                   TO77840000                                               000019
11000001000167086013707448288000100RATTA LTDA                              0633430112700000000000EVANDRO AVALLONE              ARAGUAIA, 429                                     CENTRO                        CARMOLANDIA                   TO77840000                                               000020
11000001000313082013502349230000196GLANSMANN LTDA                          0743651009500000000000RITA KIRALY                   TANCREDO NEVES, 115                               CENTRO                        CAPIM GROSSO                  BA44695000                                               000021
11000001000318289013537350246000101UMBERTO LTDA                            0649931047000000000000ALVERITA BERJOULET            O BURITI SHOP, 1044                               RES JD CAMPESTRE              RIO VERDE                     GO75907681                                               000022
11000001000538408013500527109000181DOPFER LTDA                             0153243722000000000000ADAO ESTACHAKI                ISALTINO DIAS, 88                                 CENTRO                        VOTORANTIM                    SP18110030                                               000023
11000001000538408013700527109000181DOPFER LTDA                             0153243722000000000000ADAO ESTACHAKI                ISALTINO DIAS, 88                                 CENTRO                        VOTORANTIM                    SP18110030                                               000024
11000001000732670013559305094000150VARGA LTDA                              0343268589000000000000MARLEY CACHAPUZ               TRINTA E SEIS, 436                                PROGRESSO                     ITUIUTABA                     MG38302008                                               000025
11000001000732670013759305094000150VARGA LTDA                              0343268589000000000000MARLEY CACHAPUZ               TRINTA E SEIS, 436                                PROGRESSO                     ITUIUTABA                     MG38302008                                               000026
11000001000813131013504769728000133DATTI LTDA                              0333332300600000000000BENILDE ROBAINA               HERONDINO PEREIRA XAVIER, 50                      CENTRO                        MANHUACU                      MG36.00000                                               000027
11000001000813131013704769728000133DATTI LTDA                              0333332300600000000000BENILDE ROBAINA               HERONDINO PEREIRA XAVIER, 50                      CENTRO                        MANHUACU                      MG36.00000                                               000028
11000001000815568013534028316430116RUBERTI LTDA                            0343219633700000000000ARMINDA NESS                  MARIA HELENA DE SOUZA, 321                        JARDIM BRASILIA               UBERLANDIA                    MG38401678                                               000029
11000001000815568013734028316430116RUBERTI LTDA                            0343219633700000000000ARMINDA NESS                  MARIA HELENA DE SOUZA, 321                        JARDIM BRASILIA               UBERLANDIA                    MG38401678                                               000030
11000001000884802013516987734000227LEME LTDA                               0623425149500000000000MURIEL CRIVELLO               NULL, 0                                           JARDIM PRIMAVERA              SAO DOMINGOS                  GO73860000                                               000031
11000001000914493013501552379000105CAPAZ LTDA                              0153224550000000000000ADEMILSON DALMUT              JAYMES DOS SANTOS, 369                            PARQUE                        SOROCABA                      SP18078626                                               000032
11000001001055176013534028316060190SABBAR LTDA                             0349997066200000000000ANE KAASTRUPP                 PAULO DE FONTIM, 915                              CUSTODIO PEREIRA              UBERLANDIA                    MG38405210                                               000033
11000001001055176013734028316060190SABBAR LTDA                             0349997066200000000000ANE KAASTRUPP                 PAULO DE FONTIM, 915                              CUSTODIO PEREIRA              UBERLANDIA                    MG38405210                                               000034
11000001001129641013505200771000146PAMILLO LTDA                            0114994946600000000000NORAH MARAGNO                 JOSE CABALLERO, 261                               CENTRO                        SANTO ANDRE                   SP09040210                                               000035
11000001001334431013505582932000103CORGO LTDA                              0743641006200000000000GILDA LEOPOLDO                ADOLFO MOITINHO, 676                              CENTRO                        IRECE                         BA44900000                                               000036
11000001001334431013705582932000103CORGO LTDA                              0743641006200000000000GILDA LEOPOLDO                ADOLFO MOITINHO, 676                              CENTRO                        IRECE                         BA44900000                                               000037
11000001001374034013515348283000134ODAIR LTDA                              0318600557800000000000EDELVIRA ALEXIUS              AMAZONAS, 50                                      CENTRO                        BELO HORIZONTE                MG30180001                                               000038
11000001001699944013511650698000107PASTURA LTDA                            0114781640000000000000ALISIA SIERER                 ELIAS YASBEK, 567                                 TINGIDOR                      EMBU                          SP06803911                                               000039
11000001001920535013520888705000102SCHIARO LTDA                            0340202020200000000000DAGLIA VIDMAR                 DO MESTRE, 29                                     PARQUE TAIPAS                 SAO PAULO                     SP02987160                                               000040
11000001001920535013720888705000102SCHIARO LTDA                            0340202020200000000000DAGLIA VIDMAR                 DO MESTRE, 29                                     PARQUE TAIPAS                 SAO PAULO                     SP02987160                                               000041
11000001001920535013820888705000102SCHIARO LTDA                            0340202020200000000000DAGLIA VIDMAR                 DO MESTRE, 29                                     PARQUE TAIPAS                 SAO PAULO                     SP02987160                                               000042
11000001002426518013509582632000185DINA LTDA                               0193223407700000000000ADAO ESTACHAKI                AV CARLOS LACERDA, 1006                           JD STA LUCIA                  CAMPINAS                      SP13060518                                               000043
11000001002426518013709582632000185DINA LTDA                               0193223407700000000000ADAO ESTACHAKI                AV CARLOS LACERDA, 1006                           JD STA LUCIA                  CAMPINAS                      SP13060518                                               000044
11000001002494483013519901119000163WANDA LTDA                              0111111111100000000000ADAO ESTACHAKI                HELIO SMIDT, 0                                    GUARULHOS                     GUARULHOS                     SP07190100                                               000045
11000001002494483013819901119000163WANDA LTDA                              0111111111100000000000ADAO ESTACHAKI                HELIO SMIDT, 0                                    GUARULHOS                     GUARULHOS                     SP07190100                                               000046
11000001002799276013502765250000148CAPOSESTI LTDA                          0123144694800000000000DINAH BARRO                   MIGUEL JORGE, 70                                  JARDIM PARAISO                CRUZEIRO                      SP12721110                                               000047
11000001002799276013702765250000148CAPOSESTI LTDA                          0123144694800000000000DINAH BARRO                   MIGUEL JORGE, 70                                  JARDIM PARAISO                CRUZEIRO                      SP12721110                                               000048
11000001002845979013500535370000123BOSSOLANI LTDA                          0111111111100000000000ZELMA BRESLER                 PAES LEME, 195                                    PINHEIROS                     SAO PAULO                     SP05424150                                               000049
11000001002845979013700535370000123BOSSOLANI LTDA                          0111111111100000000000ZELMA BRESLER                 PAES LEME, 195                                    PINHEIROS                     SAO PAULO                     SP05424150                                               000050
11000001002845979013800535370000123BOSSOLANI LTDA                          0111111111100000000000ZELMA BRESLER                 PAES LEME, 195                                    PINHEIROS                     SAO PAULO                     SP05424150                                               000051
11000001003126216013508791256000176GARDIM LTDA                             0489999533100000000000ALVARO CARANDANI              SETE DE SETEMBRO, 1512                            CENTRO                        ARARANGUA                     SC88900015                                               000052
11000001003133654013521793029000148CASABURA LTDA                           0119890674400000000000DOM LEDUR                     CORONEL TRANCOSO, 43                              BRAS                          SAO PAULO                     SP03010020                                               000053
11000001003133654013821793029000148CASABURA LTDA                           0119890674400000000000DOM LEDUR                     CORONEL TRANCOSO, 43                              BRAS                          SAO PAULO                     SP03010020                                               000054
11000001003221332013526484730000107THEVES LTDA                             0114064377900000000000SERTORIO DAMUJO               SAMUEL LIBORIO DE AVILA, 292                      JARDIM ADRIANA                GUARULHOS                     SP07135250                                               000055
11000001003221332013726484730000107THEVES LTDA                             0114064377900000000000SERTORIO DAMUJO               SAMUEL LIBORIO DE AVILA, 292                      JARDIM ADRIANA                GUARULHOS                     SP07135250                                               000056
11000001003221332013826484730000107THEVES LTDA                             0114064377900000000000SERTORIO DAMUJO               SAMUEL LIBORIO DE AVILA, 292                      JARDIM ADRIANA                GUARULHOS                     SP07135250                                               000057
11000001003612820013508143617000178ZANCAN LTDA                             0343317303000000000000BELIVALDA GIACOMAZZI          ORLANDO RODRIGUES DA CUNHA, 171                   LEBLON                        UBERABA                       MG38030100                                               000058
11000001003612820013708143617000178ZANCAN LTDA                             0343317303000000000000BELIVALDA GIACOMAZZI          ORLANDO RODRIGUES DA CUNHA, 171                   LEBLON                        UBERABA                       MG38030100                                               000059
11000001003612820013808143617000178ZANCAN LTDA                             0343317303000000000000BELIVALDA GIACOMAZZI          ORLANDO RODRIGUES DA CUNHA, 171                   LEBLON                        UBERABA                       MG38030100                                               000060
11000001003632588013514079862000166CECHETTO LTDA                           0213281696800000000000ADAO ESTACHAKI                R MARIA JOSE, 307                                 MADUREIRA                     RIO DE JANEIRO                RJ21341160                                               000061
11000001003632588013814079862000166CECHETTO LTDA                           0213281696800000000000ADAO ESTACHAKI                R MARIA JOSE, 307                                 MADUREIRA                     RIO DE JANEIRO                RJ21341160                                               000062
11000001003675104013516710038000198FAULHABER LTDA                          0343235115600000000000CALVIN HAIGERT                AFONSO PENA, 773                                  CENTRO                        UBERLANDIA                    MG38400130                                               000063
11000001003675104013716710038000198FAULHABER LTDA                          0343235115600000000000CALVIN HAIGERT                AFONSO PENA, 773                                  CENTRO                        UBERLANDIA                    MG38400130                                               000064
11000001003675104013816710038000198FAULHABER LTDA                          0343235115600000000000CALVIN HAIGERT                AFONSO PENA, 773                                  CENTRO                        UBERLANDIA                    MG38400130                                               000065
11000001003788898013504317432000181DELINO LTDA                             0323281165700000000000EMAUS PADOTTO                 PADRE PEDRO NOGUEIRA, 344                         CRUZEIRO                      LIMA DUARTE                   MG36140000                                               000066
11000001003788898013704317432000181DELINO LTDA                             0323281165700000000000EMAUS PADOTTO                 PADRE PEDRO NOGUEIRA, 344                         CRUZEIRO                      LIMA DUARTE                   MG36140000                                               000067
11000001003953392013517261661001145ROSETT LTDA                             0112023392200000000000GOLIAS NEGRINI                ALDEIA MANUEL ANTONIO, 386                        VILA NHOCUNE                  SAO PAULO                     SP03563060                                               000068
11000001003953392013717261661001145ROSETT LTDA                             0112023392200000000000GOLIAS NEGRINI                ALDEIA MANUEL ANTONIO, 386                        VILA NHOCUNE                  SAO PAULO                     SP03563060                                               000069
11000001003964610013502486847000153METZLINTHIN LTDA                        0353556112400000000000ELEONORA GUHL                 IRIA CALDAS, 205                                  CENTRO                        ARCEBURGO                     MG37820000                                               000070
11000001003964610013702486847000153METZLINTHIN LTDA                        0353556112400000000000ELEONORA GUHL                 IRIA CALDAS, 205                                  CENTRO                        ARCEBURGO                     MG37820000                                               000071
11000001004014870013504198288000292PICKEL LTDA                             0513451611600000000000THIAGO DALVI                  R DONA ECILDA, 437                                FREITAS                       SAPUCAIA DO SUL               RS93218110                                               000072
11000001004014870013704198288000292PICKEL LTDA                             0513451611600000000000THIAGO DALVI                  R DONA ECILDA, 437                                FREITAS                       SAPUCAIA DO SUL               RS93218110                                               000073
11000001004095624013501304784000104DURANTINI LTDA                          0212649281400000000000ADAO ESTACHAKI                ARISTIDES ANTONIO FALCAO, 570                     BOA VISTA                     CACHOEIRAS DE MACACU          RJ28680000                                               000074
11000001004095624013701304784000104DURANTINI LTDA                          0212649281400000000000ADAO ESTACHAKI                ARISTIDES ANTONIO FALCAO, 570                     BOA VISTA                     CACHOEIRAS DE MACACU          RJ28680000                                               000075
11000001004095624013801304784000104DURANTINI LTDA                          0212649281400000000000ADAO ESTACHAKI                ARISTIDES ANTONIO FALCAO, 570                     BOA VISTA                     CACHOEIRAS DE MACACU          RJ28680000                                               000076
11000001004649778013547508411169908BUCHAIM LTDA                            0113883380000000000000BELIVALDA GIACOMAZZI          GAL ATALIBA LEONEL, 3433                          TUCURUVI                      SAO PAULO                     SP02242001                                               000077
11000001004649778013747508411169908BUCHAIM LTDA                            0113883380000000000000BELIVALDA GIACOMAZZI          GAL ATALIBA LEONEL, 3433                          TUCURUVI                      SAO PAULO                     SP02242001                                               000078
11000001004649778013847508411169908BUCHAIM LTDA                            0113883380000000000000BELIVALDA GIACOMAZZI          GAL ATALIBA LEONEL, 3433                          TUCURUVI                      SAO PAULO                     SP02242001                                               000079
11000001004733639013501549353000108JACOMETTI LTDA                          0212667234100000000000TOME LIRA                     DOUTOR LUIZ GUIMARAES, 167                        NOVA IGUACU                   NOVA IGUACU                   RJ26210021                                               000080
11000001004733639013701549353000108JACOMETTI LTDA                          0212667234100000000000TOME LIRA                     DOUTOR LUIZ GUIMARAES, 167                        NOVA IGUACU                   NOVA IGUACU                   RJ26210021                                               000081
11000001004733639013801549353000108JACOMETTI LTDA                          0212667234100000000000TOME LIRA                     DOUTOR LUIZ GUIMARAES, 167                        NOVA IGUACU                   NOVA IGUACU                   RJ26210021                                               000082
11000001004824413013511277955000107CWIK LTDA                               035512215  00000000000JUDITE SCARPENTI              MAJOR FELICISSIMO, 528                            CENTRO                        JUIZ DE FORA                  MG36520000                                               000083
11000001004898190013561313847000110ZAPPAROLI LTDA                          0114748799900000000000ONDINA BRUZADELLI             MIRAMBAVA, 260                                    CENTRO                        SUZANO                        SP08674130                                               000084
11000001004898190013761313847000110ZAPPAROLI LTDA                          0114748799900000000000ONDINA BRUZADELLI             MIRAMBAVA, 260                                    CENTRO                        SUZANO                        SP08674130                                               000085
11000001004898190013861313847000110ZAPPAROLI LTDA                          0114748799900000000000ONDINA BRUZADELLI             MIRAMBAVA, 260                                    CENTRO                        SUZANO                        SP08674130                                               000086
11000001004985166013515533126000107GUNTHNER LTDA                           0119646068400000000000TARSICIO MARCELLINO           VINTE E CINCO DE MARCO, 467                       CENTRO                        SAO PAULO                     SP01021000                                               000087
11000001004985166013715533126000107GUNTHNER LTDA                           0119646068400000000000TARSICIO MARCELLINO           VINTE E CINCO DE MARCO, 467                       CENTRO                        SAO PAULO                     SP01021000                                               000088
11000001004985166013815533126000107GUNTHNER LTDA                           0119646068400000000000TARSICIO MARCELLINO           VINTE E CINCO DE MARCO, 467                       CENTRO                        SAO PAULO                     SP01021000                                               000089
11000001004999434013506301373000260MANZA LTDA                              0858606182500000000000GABRIELE PALMEIRO             SANTOS DUMONT, 315                                CENTRO                        FORTALEZA                     CE60150160                                               000090
11000001004999434013706301373000260MANZA LTDA                              0858606182500000000000GABRIELE PALMEIRO             SANTOS DUMONT, 315                                CENTRO                        FORTALEZA                     CE60150160                                               000091
11000001004999434013806301373000260MANZA LTDA                              0858606182500000000000GABRIELE PALMEIRO             SANTOS DUMONT, 315                                CENTRO                        FORTALEZA                     CE60150160                                               000092
11000001005063378013509420922000122VANZELLA LTDA                           0449999538600000000000SARAH DOZENSE                 DONA ISABEL, 1079                                 CENTRO                        SAO CARLOS DO IVAI            PR87770000                                               000093
11000001005318694013544607158000108LIVI LTDA                               0212671471900000000000AMAVIA LOESSL                 GOV LEONEL DE MOURA BRIZOLA, 1619                 CENTRO                        DUQUE DE CAXIAS               RJ25010009                                               000094
11000001005318694013744607158000108LIVI LTDA                               0212671471900000000000AMAVIA LOESSL                 GOV LEONEL DE MOURA BRIZOLA, 1619                 CENTRO                        DUQUE DE CAXIAS               RJ25010009                                               000095
11000001005318694013844607158000108LIVI LTDA                               0212671471900000000000AMAVIA LOESSL                 GOV LEONEL DE MOURA BRIZOLA, 1619                 CENTRO                        DUQUE DE CAXIAS               RJ25010009                                               000096
11000001005737956013504110863000172ASCA LTDA                               0111111111100000000000NILMA FAUTH                   SETE DE SETEMBRO, 670                             CENTRO                        DIADEMA                       SP09912010                                               000097
11000001005737956013704110863000172ASCA LTDA                               0111111111100000000000NILMA FAUTH                   SETE DE SETEMBRO, 670                             CENTRO                        DIADEMA                       SP09912010                                               000098
11000001005737956013804110863000172ASCA LTDA                               0111111111100000000000NILMA FAUTH                   SETE DE SETEMBRO, 670                             CENTRO                        DIADEMA                       SP09912010                                               000099
11000001005739444013534028316553200PALUMBO LTDA                            0114742265600000000000ADAO ESTACHAKI                CAMPOS SALES, 497                                 CENTRO                        SUZANO                        SP08674020                                               000100
11000001005739444013734028316553200PALUMBO LTDA                            0114742265600000000000ADAO ESTACHAKI                CAMPOS SALES, 497                                 CENTRO                        SUZANO                        SP08674020                                               000101
11000001005739444013834028316553200PALUMBO LTDA                            0114742265600000000000ADAO ESTACHAKI                CAMPOS SALES, 497                                 CENTRO                        SUZANO                        SP08674020                                               000102
11000001005886692013511832478000790MUNIZ LTDA                              0819857516600000000000XAVIER DREWEK                 JOAO PEREIRA DE OLIVEIRA, 5                       JANGA                         PAULISTA                      PE53437495                                               000103
11000001005886692013711832478000790MUNIZ LTDA                              0819857516600000000000XAVIER DREWEK                 JOAO PEREIRA DE OLIVEIRA, 5                       JANGA                         PAULISTA                      PE53437495                                               000104
11000001005962178013508639157000173HILLE LTDA                              0443026762400000000000CLODOMIRO RECHLIN             AV BRASIL, 1103                                   VL OPERARIA                   MARINGA                       PR87050000                                               000105
11000001005962178013708639157000173HILLE LTDA                              0443026762400000000000CLODOMIRO RECHLIN             AV BRASIL, 1103                                   VL OPERARIA                   MARINGA                       PR87050000                                               000106
11000001005996218013522411737000130KIHLING LTDA                            0112295590200000000000ADAO ESTACHAKI                GUAIAUNA, 319                                     GUAIAUNA                      SAO PAULO                     SP03631000                                               000107
11000001005996218013822411737000130KIHLING LTDA                            0112295590200000000000ADAO ESTACHAKI                GUAIAUNA, 319                                     GUAIAUNA                      SAO PAULO                     SP03631000                                               000108
11000001006209023013535515451000146CAMPOMICCI LTDA                         0843203520000000000000AGLEDY WALENCY                GEORGINO AVELINO, 178                             SAO SEBASTIAO                 NOVA CRUZ                     RN59215000                                               000109
11000001006209023013735515451000146CAMPOMICCI LTDA                         0843203520000000000000AGLEDY WALENCY                GEORGINO AVELINO, 178                             SAO SEBASTIAO                 NOVA CRUZ                     RN59215000                                               000110
11000001006209023013835515451000146CAMPOMICCI LTDA                         0843203520000000000000AGLEDY WALENCY                GEORGINO AVELINO, 178                             SAO SEBASTIAO                 NOVA CRUZ                     RN59215000                                               000111
11000001006230146013501063625000165RAMPON LTDA                             0212264256600000000000ADAO ESTACHAKI                SAO FRANCISCO XAVIER, 927                         MARACANA                      RIO DE JANEIRO                RJ20550011                                               000112
11000001006230146013701063625000165RAMPON LTDA                             0212264256600000000000ADAO ESTACHAKI                SAO FRANCISCO XAVIER, 927                         MARACANA                      RIO DE JANEIRO                RJ20550011                                               000113
11000001006230146013801063625000165RAMPON LTDA                             0212264256600000000000ADAO ESTACHAKI                SAO FRANCISCO XAVIER, 927                         MARACANA                      RIO DE JANEIRO                RJ20550011                                               000114
11000001006971375013508448762000167STEINACH LTDA                           0112451854300000000000PALMIRA GASTMANN              JOSE BRUMATTI, 3269                               JARDIM SANTO EXPEDITO         GUARULHOS                     SP07160170                                               000115
11000001006971375013708448762000167STEINACH LTDA                           0112451854300000000000PALMIRA GASTMANN              JOSE BRUMATTI, 3269                               JARDIM SANTO EXPEDITO         GUARULHOS                     SP07160170                                               000116
11000001006971375013808448762000167STEINACH LTDA                           0112451854300000000000PALMIRA GASTMANN              JOSE BRUMATTI, 3269                               JARDIM SANTO EXPEDITO         GUARULHOS                     SP07160170                                               000117
11000001007034030013500882475000159PANICHI LTDA                            0213339707700000000000FLOR IMPERATRIZ               CHRISOSTOMO PIMENTEL DE OLIVEIRA, 1053            ANCHIETA                      RIO DE JANEIRO                RJ21645521                                               000118
11000001007034030013700882475000159PANICHI LTDA                            0213339707700000000000FLOR IMPERATRIZ               CHRISOSTOMO PIMENTEL DE OLIVEIRA, 1053            ANCHIETA                      RIO DE JANEIRO                RJ21645521                                               000119
11000001007034715013519539558000178BARENTHIN LTDA                          0113678127000000000000JASON WINCK                   JERONIMO BARBOSA DA SILVA, 29                     ITAIM PAULISTA                SAO PAULO                     SP08150590                                               000120
11000001007034715013719539558000178BARENTHIN LTDA                          0113678127000000000000JASON WINCK                   JERONIMO BARBOSA DA SILVA, 29                     ITAIM PAULISTA                SAO PAULO                     SP08150590                                               000121
11000001007069667013501389709000193SANGER LTDA                             0343237669100000000000HAIDE PASI                    CLEANTO VIEIRA GONCALVES, 91                      PRES ROOSEVELT                UBERLANDIA                    MG38401576                                               000122
11000001007069667013701389709000193SANGER LTDA                             0343237669100000000000HAIDE PASI                    CLEANTO VIEIRA GONCALVES, 91                      PRES ROOSEVELT                UBERLANDIA                    MG38401576                                               000123
11000001007381628013515571249000124MIERCZYNSKI LTDA                        0663575183500000000000ELEONOR FOCKINK               FREDERICO CAMPOS, 87                              CENTRO                        PEIXOTO DE AZEVEDO            MT78530000                                               000124
11000001007968424013519748925000143ADHEMAR LTDA                            0358822479000000000000ADINEIA PAULON                DONA ALZIRA VIEIRA, 282                           MAGNOLIA                      BOA ESPERANCA                 MG37170000                                               000125
11000001007968424013719748925000143ADHEMAR LTDA                            0358822479000000000000ADINEIA PAULON                DONA ALZIRA VIEIRA, 282                           MAGNOLIA                      BOA ESPERANCA                 MG37170000                                               000126
11000001007968424013819748925000143ADHEMAR LTDA                            0358822479000000000000ADINEIA PAULON                DONA ALZIRA VIEIRA, 282                           MAGNOLIA                      BOA ESPERANCA                 MG37170000                                               000127
11000001008309580013555511604000194VARASQUIM LTDA                          0618513145800000000000ROBSON TAMBEIRA               QNP 9 CONJUNTO H, 0                               C NORTE                       BRASILIA                      DF72240808                                               000128
11000001008309580013755511604000194VARASQUIM LTDA                          0618513145800000000000ROBSON TAMBEIRA               QNP 9 CONJUNTO H, 0                               C NORTE                       BRASILIA                      DF72240808                                               000129
11000001008309580013855511604000194VARASQUIM LTDA                          0618513145800000000000ROBSON TAMBEIRA               QNP 9 CONJUNTO H, 0                               C NORTE                       BRASILIA                      DF72240808                                               000130
11000001009108570013509017307000170LEITES LTDA                             0343498882000000000000CASSIO BONNATO                CORA CORALINA, 72                                 SAO JORGE                     UBERLANDIA                    MG38410186                                               000131
11000001009108570013809017307000170LEITES LTDA                             0343498882000000000000CASSIO BONNATO                CORA CORALINA, 72                                 SAO JORGE                     UBERLANDIA                    MG38410186                                               000132
11000001009572455013504787783000156AGUIAR LTDA                             0119645638700000000000FABIA ROSSING                 POA, 196                                          JD SANTA CLARA                GUARULHOS                     SP07114300                                               000133
11000001009572455013704787783000156AGUIAR LTDA                             0119645638700000000000FABIA ROSSING                 POA, 196                                          JD SANTA CLARA                GUARULHOS                     SP07114300                                               000134
11000001010023729013568337674000110TOMAZIA LTDA                            0112946550700000000000JANECLEIDE BETIOLLO           ALENCAR ARARIPE, 1636                             SACOMA                        SAO PAULO                     SP04253000                                               000135
11000001010023729013768337674000110TOMAZIA LTDA                            0112946550700000000000JANECLEIDE BETIOLLO           ALENCAR ARARIPE, 1636                             SACOMA                        SAO PAULO                     SP04253000                                               000136
11000001010023729013868337674000110TOMAZIA LTDA                            0112946550700000000000JANECLEIDE BETIOLLO           ALENCAR ARARIPE, 1636                             SACOMA                        SAO PAULO                     SP04253000                                               000137
11000001010296377013534028316517157HIDALGO LTDA                            0111111111100000000000ADAO ESTACHAKI                DR JULIO BRAGA, 13                                CENTRO                        BARRA DO PIRAI                RJ27123010                                               000138
11000001010296377013734028316517157HIDALGO LTDA                            0111111111100000000000ADAO ESTACHAKI                DR JULIO BRAGA, 13                                CENTRO                        BARRA DO PIRAI                RJ27123010                                               000139
11000001010296377013834028316517157HIDALGO LTDA                            0111111111100000000000ADAO ESTACHAKI                DR JULIO BRAGA, 13                                CENTRO                        BARRA DO PIRAI                RJ27123010                                               000140
11000001010323820013511260885000184DAVI LTDA                               0111111111100000000000ZAILDE DENILSO                PE CICERO, 147                                    PIRAPORINHA                   DIADEMA                       SP09950120                                               000141
11000001010323820013711260885000184DAVI LTDA                               0111111111100000000000ZAILDE DENILSO                PE CICERO, 147                                    PIRAPORINHA                   DIADEMA                       SP09950120                                               000142
11000001010323820013811260885000184DAVI LTDA                               0111111111100000000000ZAILDE DENILSO                PE CICERO, 147                                    PIRAPORINHA                   DIADEMA                       SP09950120                                               000143
11000001010698696013511105481000116DECIO LTDA                              0413126126100000000000EMAUS PIACESI                 BEGONIA, 22                                       CAMPINA DA BARRA              ARAUCARIA                     PR83709320                                               000144
11000001010715779013518216678000171MENTZEL LTDA                            0799148302000000000000ANTHONY DARIO                 LAGARTO, 2177                                     SALGADO FILHO                 ARACAJU                       SE49020290                                               000145
11000001011080300013518994692000104HEWECK LTDA                             0243334121900000000000ADAO ESTACHAKI                ROD FRANCISCO SATURNINO BRAGA, 558                LIDICE                        RIO DE JANEIRO                RJ22750425                                               000146
11000001011080300013718994692000104HEWECK LTDA                             0243334121900000000000ADAO ESTACHAKI                ROD FRANCISCO SATURNINO BRAGA, 558                LIDICE                        RIO DE JANEIRO                RJ22750425                                               000147
11000001011080300013818994692000104HEWECK LTDA                             0243334121900000000000ADAO ESTACHAKI                ROD FRANCISCO SATURNINO BRAGA, 558                LIDICE                        RIO DE JANEIRO                RJ22750425                                               000148
11000001011977238013512477082000149URRUTH LTDA                             0114226478200000000000EDAIR ROSATO                  AMAZONAS, 872                                     OSVALDO CRUZ                  SAO PAULO                     SP09540204                                               000149
11000001011977238013712477082000149URRUTH LTDA                             0114226478200000000000EDAIR ROSATO                  AMAZONAS, 872                                     OSVALDO CRUZ                  SAO PAULO                     SP09540204                                               000150
11000001011977238013812477082000149URRUTH LTDA                             0114226478200000000000EDAIR ROSATO                  AMAZONAS, 872                                     OSVALDO CRUZ                  SAO PAULO                     SP09540204                                               000151
11000001012095492013505814785000150CORPACCI LTDA                           0163724160000000000000AMERICO CAIAFFA               DOUTOR HELIO PALERMO, 2888                        JARDIM SAMELLO                FRANCA                        SP14401000                                               000152
11000001012095492013705814785000150CORPACCI LTDA                           0163724160000000000000AMERICO CAIAFFA               DOUTOR HELIO PALERMO, 2888                        JARDIM SAMELLO                FRANCA                        SP14401000                                               000153
11000001012095492013805814785000150CORPACCI LTDA                           0163724160000000000000AMERICO CAIAFFA               DOUTOR HELIO PALERMO, 2888                        JARDIM SAMELLO                FRANCA                        SP14401000                                               000154
11000001012541859013507277229000117MORONI LTDA                             0219879551800000000000MAURO CABRELLI                PREFEITO DELIO BASILIO LEAL, 34                   CENTRO                        PARACAMBI                     RJ26600000                                               000155
11000001012541859013707277229000117MORONI LTDA                             0219879551800000000000MAURO CABRELLI                PREFEITO DELIO BASILIO LEAL, 34                   CENTRO                        PARACAMBI                     RJ26600000                                               000156
11000001012752795013521504289000156TROMBINI LTDA                           0113846566000000000000JANICE GARTNER                CLODOMIRO AMAZONAS, 1468                          VILA OLIMPIA                  SAO PAULO                     SP04537002                                               000157
11000001012752795013721504289000156TROMBINI LTDA                           0113846566000000000000JANICE GARTNER                CLODOMIRO AMAZONAS, 1468                          VILA OLIMPIA                  SAO PAULO                     SP04537002                                               000158
11000001012752795013821504289000156TROMBINI LTDA                           0113846566000000000000JANICE GARTNER                CLODOMIRO AMAZONAS, 1468                          VILA OLIMPIA                  SAO PAULO                     SP04537002                                               000159
11000001013152970013513574594061497SPIECHER LTDA                           0489911408900000000000DELMAR LAUCA                  GOV JORGE LACERDA, 1515                           COSTEIRA DO PIRAJUBAE         FLORIANOPOLIS                 SC88047001                                               000160
11000001013152970013713574594061497SPIECHER LTDA                           0489911408900000000000DELMAR LAUCA                  GOV JORGE LACERDA, 1515                           COSTEIRA DO PIRAJUBAE         FLORIANOPOLIS                 SC88047001                                               000161
11000001013526535013515163127000107CALVETTI LTDA                           0343231355700000000000BARBARA FRUNGILLO             ANTONIO THOMAZ FERREIRA REZENDE, 1201             NOSSA SENHORA DAS GRACAS      UBERLANDIA                    MG38402005                                               000162
11000001013526535013715163127000107CALVETTI LTDA                           0343231355700000000000BARBARA FRUNGILLO             ANTONIO THOMAZ FERREIRA REZENDE, 1201             NOSSA SENHORA DAS GRACAS      UBERLANDIA                    MG38402005                                               000163
11000001013526535013815163127000107CALVETTI LTDA                           0343231355700000000000BARBARA FRUNGILLO             ANTONIO THOMAZ FERREIRA REZENDE, 1201             NOSSA SENHORA DAS GRACAS      UBERLANDIA                    MG38402005                                               000164
11000001013623000013561645743000103POLIZEL LTDA                            0538134544600000000000BALDUINO VIALI                DUQUE DE CAXIAS, 957                              FRAGATA                       PELOTAS                       RS96030000                                               000165
11000001013623000013761645743000103POLIZEL LTDA                            0538134544600000000000BALDUINO VIALI                DUQUE DE CAXIAS, 957                              FRAGATA                       PELOTAS                       RS96030000                                               000166
1100000101377464401352630820610    BERNARDES LTDA                          0113951713800000000000GOLIAS NEGRINI                JOSE RANGEL DE CAMARAO, 474                       PARQUE PERUCHE                SAO PAULO                     SP02538010                                               000167
1100000101377464401372630820610    BERNARDES LTDA                          0113951713800000000000GOLIAS NEGRINI                JOSE RANGEL DE CAMARAO, 474                       PARQUE PERUCHE                SAO PAULO                     SP02538010                                               000168
1100000101377464401382630820610    BERNARDES LTDA                          0113951713800000000000GOLIAS NEGRINI                JOSE RANGEL DE CAMARAO, 474                       PARQUE PERUCHE                SAO PAULO                     SP02538010                                               000169
11000001013827357013503068000000111ADILSON LTDA                            0212242327200000000000ADAO ESTACHAKI                RUA GENERAL CALDWELL, 318                         CENTRO                        RIO DE JANEIRO                RJ20230195                                               000170
11000001013827357013703068000000111ADILSON LTDA                            0212242327200000000000ADAO ESTACHAKI                RUA GENERAL CALDWELL, 318                         CENTRO                        RIO DE JANEIRO                RJ20230195                                               000171
11000001013827357013803068000000111ADILSON LTDA                            0212242327200000000000ADAO ESTACHAKI                RUA GENERAL CALDWELL, 318                         CENTRO                        RIO DE JANEIRO                RJ20230195                                               000172
11000001013954103013521330850000128BOTTO LTDA                              0853295526300000000000ADAO ESTACHAKI                VINTE E OITO DE AGOTO, 1393                       CASTELAO                      FORTALEZA                     CE60861106                                               000173
11000001013954103013721330850000128BOTTO LTDA                              0853295526300000000000ADAO ESTACHAKI                VINTE E OITO DE AGOTO, 1393                       CASTELAO                      FORTALEZA                     CE60861106                                               000174
11000001015374430013551344869000194CUNDARI LTDA                            0133237623400000000000ALZIRA SACHET                 PRESIDENTE WILSON, 88                             JOSE MENINO                   SANTOS                        SP11065200                                               000175
11000001015374430013751344869000194CUNDARI LTDA                            0133237623400000000000ALZIRA SACHET                 PRESIDENTE WILSON, 88                             JOSE MENINO                   SANTOS                        SP11065200                                               000176
11000001015374430013851344869000194CUNDARI LTDA                            0133237623400000000000ALZIRA SACHET                 PRESIDENTE WILSON, 88                             JOSE MENINO                   SANTOS                        SP11065200                                               000177
11000001015795789013513186174000132CAPITAN LTDA                            0313451581300000000000JADEMIR ANGELOZZI             PADRE PEDRO PINTO, 974                            VENDA NOVA                    BELO HORIZONTE                MG31510000                                               000178
11000001015891699013503047747000193FELZ LTDA                               0193478555800000000000EDELVIRA ALEXIUS              SAO THIAGO, 807                                   SAO MANOEL                    AMERICANA                     SP13465000                                               000179
11000001015891699013803047747000193FELZ LTDA                               0193478555800000000000EDELVIRA ALEXIUS              SAO THIAGO, 807                                   SAO MANOEL                    AMERICANA                     SP13465000                                               000180
11000001015973342013534028316044232BOOCK LTDA                              0923231171000000000000MADEL FACINCANI               10 DE JULHO, 679                                  CENTRO                        MANAUS                        AM69010060                                               000181
11000001016932321013526248480000106SERAFIN LTDA                            0473264990500000000000GEZILMAR FURMANKEVICZ         R RODOLFO DA SILVA SIMAS, 1438                    TABULEIRO                     CAMBORIU                      SC88340000                                               000182
11000001016932321013726248480000106SERAFIN LTDA                            0473264990500000000000GEZILMAR FURMANKEVICZ         R RODOLFO DA SILVA SIMAS, 1438                    TABULEIRO                     CAMBORIU                      SC88340000                                               000183
11000001016939873013503649269000191STRSSBURGER LTDA                        0112063224300000000000ADAO ESTACHAKI                LINS DE VASCONCELOS, 1370                         CAMBUCI                       SAO PAULO                     SP01538001                                               000184
11000001016939873013703649269000191STRSSBURGER LTDA                        0112063224300000000000ADAO ESTACHAKI                LINS DE VASCONCELOS, 1370                         CAMBUCI                       SAO PAULO                     SP01538001                                               000185
11000001016939873013803649269000191STRSSBURGER LTDA                        0112063224300000000000ADAO ESTACHAKI                LINS DE VASCONCELOS, 1370                         CAMBUCI                       SAO PAULO                     SP01538001                                               000186
11000001016947221013506334827000118LANZIOTTI LTDA                          0843438011700000000000BEBIANA VERSANI               PEDRO DE AQUINO, 32                               CENTRO                        TENENTE LAURENTINO CRUZ       RN59338000                                               000187
11000001017883073013505063724000289SONS LTDA                               0163811512900000000000GEOVANI DARUS                 WALTER CARRARA, 854                               JOAO MATARAIA                 SAO JOAQUIM DA BARRA          SP14600000                                               000188
11000001017883073013705063724000289SONS LTDA                               0163811512900000000000GEOVANI DARUS                 WALTER CARRARA, 854                               JOAO MATARAIA                 SAO JOAQUIM DA BARRA          SP14600000                                               000189
11000001019351885013507441020000147SIGNOROTTO LTDA                         0613728080 00000000000ADAO ESTACHAKI                1 CJ A CASA 7, 0                                  CEILANDIA                     BRASILIA                      DF72215011                                               000190
11000001019351885013807441020000147SIGNOROTTO LTDA                         0613728080 00000000000ADAO ESTACHAKI                1 CJ A CASA 7, 0                                  CEILANDIA                     BRASILIA                      DF72215011                                               000191
11000001019921665013513821364000184MARIGUE LTDA                            0212621082500000000000ADAO ESTACHAKI                R LEOPOLDO BULHOES, 1480                          BONSUCESSO                    RIO DE JANEIRO                RJ21041210                                               000192
11000001019921665013713821364000184MARIGUE LTDA                            0212621082500000000000ADAO ESTACHAKI                R LEOPOLDO BULHOES, 1480                          BONSUCESSO                    RIO DE JANEIRO                RJ21041210                                               000193
11000001019921665013813821364000184MARIGUE LTDA                            0212621082500000000000ADAO ESTACHAKI                R LEOPOLDO BULHOES, 1480                          BONSUCESSO                    RIO DE JANEIRO                RJ21041210                                               000194
11000001020136488013576830348000178FUSCONI LTDA                            0111111111100000000000ADAO ESTACHAKI                SANTOS DUMONT, 1261                               ALDEOTA                       FORTALEZA                     CE60150161                                               000195
11000001020574108013509153733000130COTUZZI LTDA                            0893521305800000000000ANDREA PADUA                  DIRCEU ARCOVERDE, 1975                            IRAPUA                        FLORIANO                      PI64800000                                               000196
11000001020574108013709153733000130COTUZZI LTDA                            0893521305800000000000ANDREA PADUA                  DIRCEU ARCOVERDE, 1975                            IRAPUA                        FLORIANO                      PI64800000                                               000197
11000001020839152013508053454000132SALEME LTDA                             0110000000000000000000TICIANO SBOMPATO              ALEXIOS JAFET, 2051                               VILA AURORA                   SAO PAULO                     SP05186904                                               000198
11000001020839152013808053454000132SALEME LTDA                             0110000000000000000000TICIANO SBOMPATO              ALEXIOS JAFET, 2051                               VILA AURORA                   SAO PAULO                     SP05186904                                               000199
11000001020971204013506626253018441GOSHENHEIMER LTDA                       0853342200200000000000ELBA IVANKIO                  BARAO DE IBIAPABA, 533                            CENTRO                        CAUCAIA                       CE61600180                                               000200
11000001020971204013706626253018441GOSHENHEIMER LTDA                       0853342200200000000000ELBA IVANKIO                  BARAO DE IBIAPABA, 533                            CENTRO                        CAUCAIA                       CE61600180                                               000201
11000001020971204013806626253018441GOSHENHEIMER LTDA                       0853342200200000000000ELBA IVANKIO                  BARAO DE IBIAPABA, 533                            CENTRO                        CAUCAIA                       CE61600180                                               000202
11000001021420830013507931627000105RODRIGUEZ LTDA                          0032134732 00000000000ADAO ESTACHAKI                LINS DE VASCONCELOS, 1298                         CAMBUCI                       SAO PAULO                     SP01538000                                               000203
11000001021420830013707931627000105RODRIGUEZ LTDA                          0032134732 00000000000ADAO ESTACHAKI                LINS DE VASCONCELOS, 1298                         CAMBUCI                       SAO PAULO                     SP01538000                                               000204
11000001021420830013807931627000105RODRIGUEZ LTDA                          0032134732 00000000000ADAO ESTACHAKI                LINS DE VASCONCELOS, 1298                         CAMBUCI                       SAO PAULO                     SP01538000                                               000205
11000001021705680013504504547000185ROBLES LTDA                             0213830119300000000000ADAO ESTACHAKI                GAL OSVALDO CORDEIRO, 138                         MAL HERMES                    RIO DE JANEIRO                RJ21610480                                               000206
11000001021705680013704504547000185ROBLES LTDA                             0213830119300000000000ADAO ESTACHAKI                GAL OSVALDO CORDEIRO, 138                         MAL HERMES                    RIO DE JANEIRO                RJ21610480                                               000207
11000001022193829013510412115000147WALLLAU LTDA                            0853016178300000000000ILSA PLACCO                   DOUTOR JOAO MOREIRA, 0                            CENTRO                        FORTALEZA                     CE60030000                                               000208
11000001022193829013710412115000147WALLLAU LTDA                            0853016178300000000000ILSA PLACCO                   DOUTOR JOAO MOREIRA, 0                            CENTRO                        FORTALEZA                     CE60030000                                               000209
11000001022193829013810412115000147WALLLAU LTDA                            0853016178300000000000ILSA PLACCO                   DOUTOR JOAO MOREIRA, 0                            CENTRO                        FORTALEZA                     CE60030000                                               000210
11000001022388131013513821355000193KIRALY LTDA                             0542021243 00000000000SIDNEI PAZZETTI               MOREIRA CESAR, 2967                               CENTRO                        CAXIAS DO SUL                 RS95034000                                               000211
11000001023777336013566871971000115MATAMA LTDA                             0343269229900000000000ALUISA MAGNUS                 NAPOLEAO FAISSOL, 1845                            PLATINA                       ITUIUTABA                     MG38307120                                               000212
11000001023777336013766871971000115MATAMA LTDA                             0343269229900000000000ALUISA MAGNUS                 NAPOLEAO FAISSOL, 1845                            PLATINA                       ITUIUTABA                     MG38307120                                               000213
11000001024205522013545543915077800NAVARRO LTDA                            0743611155000000000000ANAINA CORGNATI               PC SIMOES FILHO, 9                                CENTRO                        JUAZEIRO                      BA48905080                                               000214
11000001024205522013745543915077800NAVARRO LTDA                            0743611155000000000000ANAINA CORGNATI               PC SIMOES FILHO, 9                                CENTRO                        JUAZEIRO                      BA48905080                                               000215
11000001024940036013532447203000117BERTUZI LTDA                            0313333456600000000000ADAO ESTACHAKI                GEN DID SARNOFF, 5526                             CIDADE INDUST                 CONTAGEM                      MG32210110                                               000216
11000001024940036013732447203000117BERTUZI LTDA                            0313333456600000000000ADAO ESTACHAKI                GEN DID SARNOFF, 5526                             CIDADE INDUST                 CONTAGEM                      MG32210110                                               000217
11000001025161170013509503114000129STORINI LTDA                            0518429629900000000000ODIXE VENTUROTTI              EVARISTO VEIGA, 503                               MORADA DO VALE II             GRAVATAI                      RS94120310                                               000218
11000001025161170013709503114000129STORINI LTDA                            0518429629900000000000ODIXE VENTUROTTI              EVARISTO VEIGA, 503                               MORADA DO VALE II             GRAVATAI                      RS94120310                                               000219
11000001025161170013809503114000129STORINI LTDA                            0518429629900000000000ODIXE VENTUROTTI              EVARISTO VEIGA, 503                               MORADA DO VALE II             GRAVATAI                      RS94120310                                               000220
11000001025842674013508882705000191DIENSTMANN LTDA                         0349969306800000000000EDELY PETTES                  DOS TAROIS, 700                                   TAIAMAN                       UBERLANDIA                    MG38415069                                               000221
11000001025969593013504991434000151ANDRADES LTDA                           0313270505900000000000SINESIO DEOBALD               PREFEITO SEBASTIAO FERNANDES, 364                 CENTRO                        VESPASIANO                    MG33200000                                               000222
11000001027646511013500559448000140COLACO LTDA                             0983348312900000000000NAZARE KLOTING                DANIEL DE LA TOUCHE, 987                          COHAMA                        SAO LUIS                      MA65074115                                               000223
11000001028114769013534028316088957HEIDI LTDA                              0119703528800000000000LYRA WESTENDORF               JOSE BENTO RIBEIRO DANTAS, 100                    CENTRO                        ARMACAO DE BUZIOS             RJ28950000                                               000224
11000001028114769013834028316088957HEIDI LTDA                              0119703528800000000000LYRA WESTENDORF               JOSE BENTO RIBEIRO DANTAS, 100                    CENTRO                        ARMACAO DE BUZIOS             RJ28950000                                               000225
11000001028223703013563337729000178NERBAS LTDA                             0483264012300000000000ADOSINDA ERCOLIN              R MARCOLINO DUARTE, 241                           CENTRO                        SAO JOAO BATISTA              SC88240000                                               000226
11000001028223703013763337729000178NERBAS LTDA                             0483264012300000000000ADOSINDA ERCOLIN              R MARCOLINO DUARTE, 241                           CENTRO                        SAO JOAO BATISTA              SC88240000                                               000227
11000001028473629013559406900000186BRAGA LTDA                              0133821055100000000000DEJANIRA PEANGER              TAMEKICHI TAKANO, 125                             CENTRO                        REGISTRO                      SP11900000                                               000228
11000001028735860013519539016000103SIMONIE LTDA                            0623357497900000000000ADAO ESTACHAKI                TOCANTINS, 201                                    CENTRO                        URUACU                        GO76400000                                               000229
11000001028735860013719539016000103SIMONIE LTDA                            0623357497900000000000ADAO ESTACHAKI                TOCANTINS, 201                                    CENTRO                        URUACU                        GO76400000                                               000230
11000001028840478013512023784000152BURGARDT LTDA                           0112551450000000000000OSMARINA JOKOBS               PERY RONCHETTI, 1800                              NOVA PETROPOLIS               SAO BERNARDO DO CAMPO         SP09771001                                               000231
11000001030036257013514499377000141LIBERALE LTDA                           0613359349400000000000RAMON WIELEWICKI              QR 421 CONJUNTO 07 LOTES 0131, SN                 SAMAMBAIA NORTE               BRASILIA                      DF72325108                                               000232
11000001030036257013714499377000141LIBERALE LTDA                           0613359349400000000000RAMON WIELEWICKI              QR 421 CONJUNTO 07 LOTES 0131, SN                 SAMAMBAIA NORTE               BRASILIA                      DF72325108                                               000233
11000001030784490013562929260000101MANSOW LTDA                             0733288292300000000000ROBSON NOACCO                 SANTOS DUMONT, 22                                 AREAO                         PORTO SEGURO                  BA45810000                                               000234
11000001034399702013516657174000161PELETTI LTDA                            0005571095100000000000BARNABE ANGELINE              CONS RODRIGUES ALVES, 232                         VILA MARIANA                  SAO PAULO                     SP04014000                                               000235
11000001034399702013716657174000161PELETTI LTDA                            0005571095100000000000BARNABE ANGELINE              CONS RODRIGUES ALVES, 232                         VILA MARIANA                  SAO PAULO                     SP04014000                                               000236
11000001034399702013816657174000161PELETTI LTDA                            0005571095100000000000BARNABE ANGELINE              CONS RODRIGUES ALVES, 232                         VILA MARIANA                  SAO PAULO                     SP04014000                                               000237
11000001035213122013505372637000122WALTHER LTDA                            0443639230000000000000AGIPINO BINDER                AV TIRADENTES, 2289                               JD PARAISO                    UMUARAMA                      PR87505090                                               000238
11000001035213122013705372637000122WALTHER LTDA                            0443639230000000000000AGIPINO BINDER                AV TIRADENTES, 2289                               JD PARAISO                    UMUARAMA                      PR87505090                                               000239
11000001035297156013566807900000153ARDENGHI LTDA                           0114707138200000000000ABELARDO GOLL                 CARMINE GRAGNANO, 1010                            CENTRO                        JANDIRA                       SP06600010                                               000240
11000001035297156013766807900000153ARDENGHI LTDA                           0114707138200000000000ABELARDO GOLL                 CARMINE GRAGNANO, 1010                            CENTRO                        JANDIRA                       SP06600010                                               000241
11000001035297156013866807900000153ARDENGHI LTDA                           0114707138200000000000ABELARDO GOLL                 CARMINE GRAGNANO, 1010                            CENTRO                        JANDIRA                       SP06600010                                               000242
11000001036450640013529073114000143ROSEMBERGAS LTDA                        0000000000 00000000000ADAO ESTACHAKI                ARAUJO LEITE QUADRA, 36                           CENTRO                        BAURU                         SP17015340                                               000243
11000001036450640013729073114000143ROSEMBERGAS LTDA                        0000000000 00000000000ADAO ESTACHAKI                ARAUJO LEITE QUADRA, 36                           CENTRO                        BAURU                         SP17015340                                               000244
11000001036450640013829073114000143ROSEMBERGAS LTDA                        0000000000 00000000000ADAO ESTACHAKI                ARAUJO LEITE QUADRA, 36                           CENTRO                        BAURU                         SP17015340                                               000245
11000001043850497013524463377000145BORLIN LTDA                             0193872393900000000000ELVIRA SOMMER                 SAUDADE, 32                                       CHACARA HORIZONTE             COSMOPOLIS                    SP13150000                                               000246
11000001043850497013724463377000145BORLIN LTDA                             0193872393900000000000ELVIRA SOMMER                 SAUDADE, 32                                       CHACARA HORIZONTE             COSMOPOLIS                    SP13150000                                               000247
11000001048508347013521000468001128ARMINDO LTDA                            0833282147800000000000SARAH DOZENSE                 JOSE LINS DO REGO, SN                             CENTRO                        PILAR                         PB58338000                                               000248
11000001050357393013542591651163875GUILAND LTDA                            0333751164000000000000VILSON SANTACROCE             BR 459, SN                                        IPIRANGA                      POUSO ALEGRE                  MG37550000                                               000249
11000001050893627013500921467000174LORENZINI LTDA                          0413396243100000000000MARINA SANDRES                FRANCISCO JOSE BOZZA, 256                         TATUQUARA                     CURITIBA                      PR81480335                                               000250
11000001050893627013700921467000174LORENZINI LTDA                          0413396243100000000000MARINA SANDRES                FRANCISCO JOSE BOZZA, 256                         TATUQUARA                     CURITIBA                      PR81480335                                               000251
11000001055820660013512645047000191CHRISTOFOLETTI LTDA                     0212551179800000000000ADAO ESTACHAKI                R MQ DE ABRANTES, 216                             FLAMENGO                      RIO DE JANEIRO                RJ22230061                                               000252
11000001055820660013712645047000191CHRISTOFOLETTI LTDA                     0212551179800000000000ADAO ESTACHAKI                R MQ DE ABRANTES, 216                             FLAMENGO                      RIO DE JANEIRO                RJ22230061                                               000253
11000001055820660013812645047000191CHRISTOFOLETTI LTDA                     0212551179800000000000ADAO ESTACHAKI                R MQ DE ABRANTES, 216                             FLAMENGO                      RIO DE JANEIRO                RJ22230061                                               000254
11000001060344367013543819382000192BUSETTI LTDA                            0813634283400000000000ALMIR GONCALO                 ISRAEL FONSECA, 93                                CENTRO                        BOM JARDIM                    RJ55730000                                               000255
11000001060344367013743819382000192BUSETTI LTDA                            0813634283400000000000ALMIR GONCALO                 ISRAEL FONSECA, 93                                CENTRO                        BOM JARDIM                    RJ55730000                                               000256
11000001060344367013843819382000192BUSETTI LTDA                            0813634283400000000000ALMIR GONCALO                 ISRAEL FONSECA, 93                                CENTRO                        BOM JARDIM                    RJ55730000                                               000257
11000001062469833013506881313000182MARSIGLIESE LTDA                        0543317707000000000000ADAO ESTACHAKI                DEPUTADO DIOMICIO FREITAS, 2433                   CARIANOS                      FLORIANOPOLIS                 SC88047401                                               000258
11000001065440950013513257004000282NAKONECZNY LTDA                         0114055556600000000000TARCISIO AVELLI               JOSE BONIFACIO, 372                               SERRARIA                      DIADEMA                       SP09960120                                               000259
11000001065440950013713257004000282NAKONECZNY LTDA                         0114055556600000000000TARCISIO AVELLI               JOSE BONIFACIO, 372                               SERRARIA                      DIADEMA                       SP09960120                                               000260
11000001065440950013813257004000282NAKONECZNY LTDA                         0114055556600000000000TARCISIO AVELLI               JOSE BONIFACIO, 372                               SERRARIA                      DIADEMA                       SP09960120                                               000261
11000001072184181013507456913000166SCHRESCH LTDA                           0111111111100000000000ADAO ESTACHAKI                MARQUES DE ABRANTES, 85                           FLAMENGO                      RIO DE JANEIRO                RJ22230060                                               000262
11000001072184181013707456913000166SCHRESCH LTDA                           0111111111100000000000ADAO ESTACHAKI                MARQUES DE ABRANTES, 85                           FLAMENGO                      RIO DE JANEIRO                RJ22230060                                               000263
11000001072184181013807456913000166SCHRESCH LTDA                           0111111111100000000000ADAO ESTACHAKI                MARQUES DE ABRANTES, 85                           FLAMENGO                      RIO DE JANEIRO                RJ22230060                                               000264
11000001072364988013501439182000164BOSSOLAN LTDA                           0879911718900000000000ESTER PALMIERI                JURACIR CASSIANO, 107                             PLANALTO                      LAJEDO                        PE55385000                                               000265
11000001074032834013502916265010807POLACINE LTDA                           0849998911400000000000FLORENCIO VALLADRO            AMINTAS BARROS, 1999                              LAGOA NOVA                    NATAL                         RN59054465                                               000266
11000001074032834013702916265010807POLACINE LTDA                           0849998911400000000000FLORENCIO VALLADRO            AMINTAS BARROS, 1999                              LAGOA NOVA                    NATAL                         RN59054465                                               000267
11000001074103529013511162992000170ZAVOLSKI LTDA                           0163996307600000000000LAURA CADO                    JOAO TONIOLLI, 3543                               JD DIVA TARLA DE CAR          RIBEIRAO PRETO                SP14079390                                               000268
11000001074103529013711162992000170ZAVOLSKI LTDA                           0163996307600000000000LAURA CADO                    JOAO TONIOLLI, 3543                               JD DIVA TARLA DE CAR          RIBEIRAO PRETO                SP14079390                                               000269
11000001077056700013531711344000132WELCHE LTDA                             0111111111100000000000ADAO ESTACHAKI                CARIBE DA ROCHA, 30                               CENTRO                        SANTO ANTONIO DE PADUA        RJ28470000                                               000270
11000001077056700013731711344000132WELCHE LTDA                             0111111111100000000000ADAO ESTACHAKI                CARIBE DA ROCHA, 30                               CENTRO                        SANTO ANTONIO DE PADUA        RJ28470000                                               000271
11000001077056700013831711344000132WELCHE LTDA                             0111111111100000000000ADAO ESTACHAKI                CARIBE DA ROCHA, 30                               CENTRO                        SANTO ANTONIO DE PADUA        RJ28470000                                               000272
11000001077834893013520702154002267BISCACIO LTDA                           0343232317100000000000DALTON SCHRUP                 ARNALDO CONTURSI, 185                             MARTA HELENA                  UBERLANDIA                    MG38406075                                               000273
11000001077834893013720702154002267BISCACIO LTDA                           0343232317100000000000DALTON SCHRUP                 ARNALDO CONTURSI, 185                             MARTA HELENA                  UBERLANDIA                    MG38406075                                               000274
11000001078583576013503424897000250SIBELL LTDA                             0413338934600000000000CARIN ONICKI                  NILO PECANHA, 1293                                BOM RETIRO                    CURITIBA                      PR82120440                                               000275
11000001078583576013703424897000250SIBELL LTDA                             0413338934600000000000CARIN ONICKI                  NILO PECANHA, 1293                                BOM RETIRO                    CURITIBA                      PR82120440                                               000276
11000001078583576013803424897000250SIBELL LTDA                             0413338934600000000000CARIN ONICKI                  NILO PECANHA, 1293                                BOM RETIRO                    CURITIBA                      PR82120440                                               000277
11000001079931543013522261814000112BERTOIA LTDA                            0513459476700000000000ZAINE DIADAMO                 R QUARAI, 12                                      VL ESPERANCA                  ESTEIO                        RS93285480                                               000278
11000001079931543013722261814000112BERTOIA LTDA                            0513459476700000000000ZAINE DIADAMO                 R QUARAI, 12                                      VL ESPERANCA                  ESTEIO                        RS93285480                                               000279
11000001083161056013511257445000178THER LTDA                               0622599214 00000000000ALDO LOVAGLIO                 ,                                                 PARQUE AMAZONIA               GOIANIA                       GO74340160                                               000280
11000001101273353013510299224000108DAMIANI LTDA                            0713289564500000000000ALAOR SERTIANI                SANTO ANTONIO, 189                                PORTAO                        LAURO DE FREITAS              BA42700000                                               000281
11000001101273353013710299224000108DAMIANI LTDA                            0713289564500000000000ALAOR SERTIANI                SANTO ANTONIO, 189                                PORTAO                        LAURO DE FREITAS              BA42700000                                               000282
11000001101560468013556441124000167BOFFI LTDA                              0112206767800000000000JAQUELINE ERENSPERGER         SEGUNDO SARGENTO ASSAD FERES, 35                  PARQUE NOVO MUNDO             SAO PAULO                     SP02176030                                               000283
11000001101560468013756441124000167BOFFI LTDA                              0112206767800000000000JAQUELINE ERENSPERGER         SEGUNDO SARGENTO ASSAD FERES, 35                  PARQUE NOVO MUNDO             SAO PAULO                     SP02176030                                               000284
11000001101560468013856441124000167BOFFI LTDA                              0112206767800000000000JAQUELINE ERENSPERGER         SEGUNDO SARGENTO ASSAD FERES, 35                  PARQUE NOVO MUNDO             SAO PAULO                     SP02176030                                               000285
11000001107741138013506982693000141SEVENINI LTDA                           0000000000000000000000GEZILMAR FURMANKEVICZ         ANISIO ALVES COSTA, 1887                          CENTRO                        PORTO NACIONAL                TO77500000                                               000286
11000001108914281013521007462000100REISNER LTDA                            0313551273200000000000MAXIMA LINDENMAYER            MACIEL, 100                                       ALTO DA CRUZ                  OURO PRETO                    MG35400000                                               000287
11000001108914281013721007462000100REISNER LTDA                            0313551273200000000000MAXIMA LINDENMAYER            MACIEL, 100                                       ALTO DA CRUZ                  OURO PRETO                    MG35400000                                               000288
11000002750043942013568820950000368KLODZINSKA LTDA                         0493552035500000000000ROSILENE CORSI                7 DE SETEMBRO, 1428                               CENTRO                        LACERDOPOLIS                  SC89660000                                               000289
11000002759038402013534028316823193POSCHL LTDA                             0113858122600000000000ELOA DILLEBEUER               PROF CELESTINO BOURROUL, 426                      LIMAO                         SAO PAULO                     SP02710000                                               000290
11000002759038402013734028316823193POSCHL LTDA                             0113858122600000000000ELOA DILLEBEUER               PROF CELESTINO BOURROUL, 426                      LIMAO                         SAO PAULO                     SP02710000                                               000291
11000002759038402013834028316823193POSCHL LTDA                             0113858122600000000000ELOA DILLEBEUER               PROF CELESTINO BOURROUL, 426                      LIMAO                         SAO PAULO                     SP02710000                                               000292
11000004561842463013507123826000197MARSIGLIESE LTDA                        0549214078400000000000EDEILDA GRESS                 PAROBE, 348                                       SCHARLAU                      SAO LEOPOLDO                  RS93125000                                               000293
11000004562793946013513950987000157ODAIR LTDA                              0929812049800000000000LIANE BANAGLIERI              COSME FERREIRA, 4605                              SAO JOSE OPERARIO             MANAUS                        AM69085015                                               000294
11000004562809842013505967937000154ISAIA LTDA                              0111111111100000000000TEO CASATI                    DA ALFANDEGA, 104                                 CENTRO                        RIO DE JANEIRO                RJ20070004                                               000295
11000004562809842013705967937000154ISAIA LTDA                              0111111111100000000000TEO CASATI                    DA ALFANDEGA, 104                                 CENTRO                        RIO DE JANEIRO                RJ20070004                                               000296
11000004562809842013805967937000154ISAIA LTDA                              0111111111100000000000TEO CASATI                    DA ALFANDEGA, 104                                 CENTRO                        RIO DE JANEIRO                RJ20070004                                               000297
11000004563596079013511100581000150KUHS LTDA                               0622784508 00000000000ALDO LOVAGLIO                 ,                                                 SETOR PEDRO LUDOVICO          GOIANIA                       GO74830130                                               000298
11000004563809358013510478691000278CAMAZZOLA LTDA                          0112422484300000000000JAIR GHINZELLI                JOSE PINHEIRO BORGES, 0                           VILA CAMPANELA                SAO PAULO                     SP08220900                                               000299
11000004563809358013710478691000278CAMAZZOLA LTDA                          0112422484300000000000JAIR GHINZELLI                JOSE PINHEIRO BORGES, 0                           VILA CAMPANELA                SAO PAULO                     SP08220900                                               000300
11000004563809358013810478691000278CAMAZZOLA LTDA                          0112422484300000000000JAIR GHINZELLI                JOSE PINHEIRO BORGES, 0                           VILA CAMPANELA                SAO PAULO                     SP08220900                                               000301
11000004564119231013509653984000184RUBI LTDA                               0914008100500000000000DANTE GROSSU                  PARIQUIS, 1056                                    JURUNAS                       BELEM                         PA66033590                                               000302
11000004564119231013709653984000184RUBI LTDA                               0914008100500000000000DANTE GROSSU                  PARIQUIS, 1056                                    JURUNAS                       BELEM                         PA66033590                                               000303
11000004564119231013809653984000184RUBI LTDA                               0914008100500000000000DANTE GROSSU                  PARIQUIS, 1056                                    JURUNAS                       BELEM                         PA66033590                                               000304
11000004564122526013502308408000150ZUCON LTDA                              0222566651300000000000CARILINDA SALINGER            TANCREDO NEVES, 262                               MARAVILHA                     BOM JARDIM                    RJ28660000                                               000305
11000004564122526013702308408000150ZUCON LTDA                              0222566651300000000000CARILINDA SALINGER            TANCREDO NEVES, 262                               MARAVILHA                     BOM JARDIM                    RJ28660000                                               000306
11000004564210603013573358806000120NAKASHIMA LTDA                          0319884780200000000000DORA SANT                     FORTALEZA, 340                                    VENEZA                        IPATINGA                      MG35164300                                               000307
11000004564210603013773358806000120NAKASHIMA LTDA                          0319884780200000000000DORA SANT                     FORTALEZA, 340                                    VENEZA                        IPATINGA                      MG35164300                                               000308
11000004564343557013525669037000138DIETSCHI LTDA                           0613561005900000000000ADAO ESTACHAKI                QCA SAO JOSE CHAC 149 LOTE 01, 0                  CA SAMAMBAIA                  BRASILIA                      DF72110800                                               000309
9                                                                                                                                                                                                                                                                                                     000310